:100000000C94F6000C9420010C9420010C94200117
:100010000C9420010C9420010C9420010C942001DC
:100020000C9420010C9420010C9420010C942001CC
:100030000C9420010C9420010C9420010C942001BC
:100040000C9420010C9424080C9420010C942001A1
:100050000C9420010C9420010C9420010C94F006C7
:100060000C9420010C9464070C943A070C94200122
:100070000C9420010C9420010C9420010C9420017C
:100080000C94F6070C9420010C9420010C94200190
:100090000C9420010C9420010C9420010C9420015C
:1000A0000C9420010C9420010C94C8070C9420019E
:1000B0000C9420010C9420010C9420010C949A07BC
:1000C0000C9420010C9420010C9420010C9420012C
:1000D0000C9420010C9420010C9420010C9420011C
:1000E0000C94200100000A0B02090C0D0E080703F6
:1000F00004010000000000000000000000000000FB
:1001000000000000000000000000000000000000EF
:1001100012111000000000000000000000000000AC
:100120000000000000000000000000002200250088
:1001300028002B002E0031003400020100000501D0
:1001400008010B0100002100240027002A002D00D7
:100150003000330001010000040107010A01050518
:100160000505070508080808020202020A0A08082D
:10017000040404040101010101010101030303035B
:1001800003030303040707070C0C0C0C0C0C0C0CEA
:100190000202020206060606060606060B0B0B0BFB
:1001A0000B0B0B0B01021020200808102040102020
:1001B000408002010201080402010102040810202B
:1001C0004080804020100804020180040201804029
:1001D0002010080402010804020101020408102092
:1001E00040800102040810204080520811241FBEE4
:1001F000CFEFD1E2DEBFCDBF12E0A0E0B2E0E2E19E
:10020000FCE100E00BBF02C007900D92A233B107E2
:10021000D9F723E0A2E3B2E001C01D92A83AB207E9
:10022000E1F710E0C6EFD0E004C02197FE010E9484
:10023000FD0BC53FD107C9F70E942C090C94070E8E
:100240000C94000090E0FC01EC55FE4F2491825A82
:100250009E4FFC018491882399F090E0880F991FAC
:10026000FC01EC5BFE4FA591B491FC01E65DFE4FF5
:10027000859194918FB7F894EC91E22BEC938FBF1A
:100280000895CF92DF92EF92FF921F93CF93DF9367
:100290001091A503103308F048C02091A603C8E8C8
:1002A000D0E0C21BD10927FDD395CC0FDD1FCC0FA9
:1002B000DD1F6E010D2E000CEE08FF084091A70314
:1002C00028E532E0241B310947FD3395220F331F07
:1002D000220F331F032E000C440B550B2C193D0924
:1002E0004E095F09DC010E94B80B24EB30E040E0CE
:1002F00050E00E948E0B2C0D3D1D4E1D5F1D2C17D6
:100300003D070CF49E0122503109220F331F4FB7D5
:10031000F894812F90E0FC01EE0FFF1FE80FF91F0A
:10032000E452FD4F328321834FBFDF91CF911F9164
:10033000FF90EF90DF90CF900895282F30E0F901E3
:10034000EC51FF4F9491F901EC55FE4F8491225AE4
:100350003E4FF9012491222309F433C0992301F17E
:1003600091509231E8F4E92FF0E0E754FE4F0C94FD
:10037000FD0BEA01EE01CB01E201E601D001F10142
:10038000F701FB010102050209020F021302D0016D
:1003900017021D022102909180009F7790938000A8
:1003A000E22FF0E0EE0FFF1FE65DFE4FA591B49146
:1003B0009FB7F894EC91611148C080958E238C937F
:1003C0009FBF0895909180009F7DE8CF909180001D
:1003D000977FE4CF94B59F7794BDE2CF94B59F7D8E
:1003E000FBCF9091B0009F779093B000D9CF9091C0
:1003F000B0009F7DF9CF909190009F7790939000EF
:10040000CFCF909190009F7DF9CF90919000977FF2
:10041000F5CF9091A0009F779093A000C1CF9091CD
:10042000A0009F7DF9CF9091A000977FF5CF90918C
:1004300020019F7790932001B3CF909120019F7D61
:10044000F9CF90912001977FF5CF8E2BB8CF3FB792
:10045000F89480913B0290913C02A0913D02B091B2
:100460003E0226B5A89B05C02F3F19F00196A11D9D
:10047000B11D3FBFBA2FA92F982F8827BC01CD01EE
:10048000620F711D811D911D42E0660F771F881F4D
:10049000991F4A95D1F708958F929F92AF92BF927C
:1004A000CF92DF92EF92FF924B015C010E942702F4
:1004B0006B017C010E9427026C197D098E099F093E
:1004C000683E734081059105A8F321E0821A9108E6
:1004D000A108B10888EEC80E83E0D81EE11CF11C0B
:1004E00081149104A104B10429F7FF90EF90DF90EB
:1004F000CF90BF90AF909F908F900895AF92BF9292
:10050000CF92DF92EF92FF920F931F93CF93DF93DF
:100510006C017B018B01040F151FEB015E01AE180E
:10052000BF08C017D10759F06991D601ED91FC9130
:100530000190F081E02DC6010995892B79F7C5015D
:10054000DF91CF911F910F91FF90EF90DF90CF90AF
:10055000BF90AF900895FC01538D448D252F30E05E
:10056000842F90E0821B930B541710F0CF960895C0
:1005700001970895FC01918D828D981761F0A28DED
:10058000AE0FBF2FB11D5D968C91928D9F5F9F73B3
:10059000928F90E008958FEF9FEF0895FC01918D69
:1005A000828D981731F0828DE80FF11D858D90E0D6
:1005B00008958FEF9FEF0895FC01918D228D892F73
:1005C00090E0805C9F4F821B91098F73992708955B
:1005D0008FE392E00E94DC0221E0892B09F420E005
:1005E000822F0895FC01A48DA80FB92FB11DA35A25
:1005F000BF4F2C91848D90E001968F739927848F43
:10060000A689B7892C93A089B1898C918370806465
:100610008C93938D848D981306C00288F389E02D06
:1006200080818F7D80830895EF92FF920F931F93B7
:10063000CF93DF93EC0181E0888F9B8D8C8D981395
:100640001AC0E889F989808185FF15C09FB7F894A1
:10065000EE89FF896083E889F989808183708064ED
:1006600080839FBF81E090E0DF91CF911F910F9138
:10067000FF90EF900895F62E0B8D10E00F5F1F4F47
:100680000F731127E02E8C8D8E110CC00FB607FC56
:10069000FACFE889F989808185FFF5CFCE010E94E4
:1006A000F202F1CFEB8DEC0FFD2FF11DE35AFF4F5E
:1006B000F0829FB7F8940B8FEA89FB898081806272
:1006C000CFCFCF93DF93EC01888D8823B9F0AA892F
:1006D000BB89E889F9898C9185FD03C0808186FDFD
:1006E0000DC00FB607FCF7CF8C9185FFF2CF80814C
:1006F00085FFEDCFCE010E94F202E9CFDF91CF91CD
:10070000089580E090E0892B29F00E94E802811191
:100710000E94000080E090E0892B49F080E090E0AA
:10072000892B29F00E94000081110E94000080E0C6
:1007300090E0892B49F080E090E0892B29F00E941D
:10074000000081110E94000080E090E0892B49F0B8
:1007500080E090E0892B29F00E94000081110C9428
:1007600000000895AF92BF92CF92DF92EF92FF9276
:100770000F931F93CF93DF936B017A01EC01CE5C53
:10078000DD4F28813CE0389F8001399F100D1124F6
:10079000A0906C03B12C27FF1FC0FB0111821082B7
:1007A00088818F5F888388819801280F311D87FD9C
:1007B0003A95F6012A153B051CF488818C30C4F16A
:1007C00080819181049680349C4908F473C0F601BD
:1007D00080819181049670C088819801280F311D15
:1007E00087FD3A952A153B05DCF68881A801480F5C
:1007F000511D87FD5A95FA01EE0FFF1FE40FF51FFB
:10080000E452FD4F808186FFCBCF8881F801E80F4D
:10081000F11D87FDFA95CF01EE0FFF1FE80FF91FBD
:10082000E452FD4F808160E08F730E949D01B8CF3C
:10083000808191812881A801420F511D27FD5A9581
:100840009A01FA01EE0FFF1FE20FF31FE452FD4F72
:1008500021813281820F931FF701918380838881E8
:100860009801280F311D87FD3A95F901EE0FFF1F02
:10087000E20FF31FE452FD4F808186FF22C0888182
:10088000080F111D87FD1A95F801EE0FFF1FE00FED
:10089000F11FE452FD4F808161E08F73DF91CF91B2
:1008A0001F910F91FF90EF90DF90CF90BF90AF908E
:1008B0000C949D0180E49CE9F701918380838FEF84
:1008C0008883DF91CF911F910F91FF90EF90DF9080
:1008D000CF90BF90AF9008952F923F924F925F922A
:1008E0006F927F928F929F92AF92BF92CF92DF9240
:1008F000EF92FF920F931F93CF93DF93CDB7DEB7A5
:100900002A970FB6F894DEBF0FBECDBF6D837E83EE
:100910008F8398872DEC3CEC4CE45EE3609173038D
:100920007091740380917503909176030E949A0DE3
:100930006B017C0120E030E0A9010E94950D20E0D0
:1009400030E040E05FE387FD65C0C701B6010E946B
:10095000070C0E94EA0C0091790310917A03209110
:100960007B0330917C03DC01CB01800F911FA21F20
:10097000B31F80937D0390937E03A0937F03B09376
:10098000800322242A94322C80917703909178035B
:10099000892B09F04FC080917D0390917E03A09137
:1009A0007F03B09180034091790350917A03609165
:1009B0007B0370917C03841B950BA60BB70B181659
:1009C00019061A061B065CF581E090E09093780307
:1009D0008093770360E080916E030E949D01809177
:1009E000910390919203A0919303B091940380930B
:1009F000990390939A03A0939B03B0939C030E9446
:100A0000270260939D0370939E0380939F039093AE
:100A1000A003BACFC701B6010E94060C9ACF892B5A
:100A20008A2B8B2B09F467C13092780320927703CD
:100A300061E0D1CF0E9427024B015C0180919D03B0
:100A400090919E03A0919F03B091A0037501640152
:100A5000C81AD90AEA0AFB0A6091990370919A03AD
:100A600080919B0390919C030E94F10CC616D706BF
:100A7000E806F90608F488CF61E080916D030E94D2
:100A80009D0183E090E00197F1F7009177031091C9
:100A90007803A801012E000C660B770B8091790377
:100AA00090917A03A0917B03B0917C03840F951FF2
:100AB000A61FB71F8093790390937A03A0937B03BB
:100AC000B0937C03C0909903D0909A03E0909B036D
:100AD000F0909C03C092A103D092A203E092A303E2
:100AE000F092A40380929D0390929E03A0929F0394
:100AF000B092A00380907D0390907E03A0907F032E
:100B0000B0908003881A990AAA0ABB0AB7FE8DC062
:100B1000B094A09490948094811C911CA11CB11C51
:100B200091E09A871986A7019601C701B6010E9434
:100B30009A0D69837A838B839C83209189033091FA
:100B40008A0340918B0350918C030E949A0D9B0164
:100B5000AC0165EA74ED88EE92E50E94780C2B01F9
:100B60003C0120E030E0A9010E94950D20E030E03A
:100B700040E05FE387FD5DC0C301B2010E94070C46
:100B80000E94EA0C0130110509F0D3C02985222307
:100B900009F454C086169706A806B9060CF4EAC0F4
:100BA00020918503309186034091870350918803FB
:100BB000C701B6010E94730C87FDDCC020918D0334
:100BC00030918E0340918F035091900369817A8117
:100BD0008B819C810E949A0DA70196010E949A0D1B
:100BE0009B01AC01C701B6010E94060C60939903FA
:100BF00070939A0380939B0390939C03C09085030A
:100C0000D0908603E0908703F0908803A7019601B7
:100C10000E94730C87FF2CC0C0929903D0929A0354
:100C2000E0929B03F0929C0323C01A8621E029875F
:100C30007ACFC301B2010E94060CA2CF8A85882315
:100C4000B9F0209191033091920340919303509118
:100C50009403C701B6010E94730C87FD8BC03092CC
:100C600078032092770361E080916E030E949D01DA
:100C700060E080916D030E949D0140917903509145
:100C80007A0360917B0370917C0380917D03909146
:100C90007E03A0917F03B0918003481759076A072C
:100CA0007B0709F071CE2091950330919603409116
:100CB0009703509198036091990370919A038091E2
:100CC0009B0390919C030E94950D87FD5DCE109231
:100CD000A1031092A2031092A3031092A4031092F6
:100CE000990310929A0310929B0310929C03109206
:100CF0007803109277036D817E818F8198852A9683
:100D00000FB6F894DEBF0FBECDBFDF91CF911F911C
:100D10000F91FF90EF90DF90CF90BF90AF909F909A
:100D20008F907F906F905F904F903F902F900C949A
:100D30004C020F3F1F4F09F09BCF2A8521112ACF6C
:100D40008985882309F494CF2091910330919203EF
:100D50004091930350919403C701B6010E94730C14
:100D600087FD08C081E090E090937803809377033B
:100D700060E07ACF20918D0330918E0340918F03F4
:100D80005091900369817A818B819C810E949A0D98
:100D9000A70196010E949A0DA70196010E94070CD7
:100DA0006093990370939A0380939B0390939C03A1
:100DB000C0909103D0909203E0909303F09094033D
:100DC000A70196010E94950D18160CF425CF50CF5F
:100DD0004FE150E062E172E08FE392E00C947E021A
:100DE0001F920F920FB60F9211242F933F938F9360
:100DF0009F93AF93BF938091370290913802A09157
:100E00003902B0913A023091360223E0230F2D3798
:100E100058F50196A11DB11D20933602809337022B
:100E200090933802A0933902B0933A0280913B022A
:100E300090913C02A0913D02B0913E020196A11D0D
:100E4000B11D80933B0290933C02A0933D02B0936E
:100E50003E02BF91AF919F918F913F912F910F9043
:100E60000FBE0F901F90189526E8230F0296A11D24
:100E7000B11DD2CF1F920F920FB60F9211240BB655
:100E80000F922F933F934F935F936F937F938F9323
:100E90009F93AF93BF93EF93FF938FE392E00E94F2
:100EA000F202FF91EF91BF91AF919F918F917F914E
:100EB0006F915F914F913F912F910F900BBE0F90CB
:100EC0000FBE0F901F9018951F920F920FB60F92A2
:100ED00011240BB60F922F938F939F93EF93FF9351
:100EE000E0914F02F09150028081E0915502F09123
:100EF000560282FD1DC09081809158028F5F8F73D2
:100F000020915902821741F0E0915802F0E0E15C33
:100F1000FD4F958F80935802FF91EF919F918F9194
:100F20002F910F900BBE0F900FBE0F901F90189532
:100F30008081F2CF1F920F920FB60F9211240BB641
:100F40000F922F933F934F935F936F937F938F9362
:100F50009F93AF93BF93EF93FF9348E251E064E216
:100F600071E090E080E00E94B203FF91EF91BF91A9
:100F7000AF919F918F917F916F915F914F913F9131
:100F80002F910F900BBE0F900FBE0F901F901895D2
:100F90001F920F920FB60F9211240BB60F922F9340
:100FA0003F934F935F936F937F938F939F93AF93F1
:100FB000BF93EF93FF9348EA50E064EA70E083E068
:100FC00090E00E94B203FF91EF91BF91AF919F918A
:100FD0008F917F916F915F914F913F912F910F90E2
:100FE0000BBE0F900FBE0F901F9018951F920F927F
:100FF0000FB60F9211240BB60F922F933F934F937E
:101000005F936F937F938F939F93AF93BF93EF9370
:10101000FF9348E950E064E970E082E090E00E94CC
:10102000B203FF91EF91BF91AF919F918F917F910B
:101030006F915F914F913F912F910F900BBE0F9049
:101040000FBE0F901F9018951F920F920FB60F9220
:1010500011240BB60F922F933F934F935F936F938F
:101060007F938F939F93AF93BF93EF93FF9348E842
:1010700050E064E870E081E090E00E94B203FF91EC
:10108000EF91BF91AF919F918F917F916F915F9100
:101090004F913F912F910F900BBE0F900FBE0F906D
:1010A0001F901895109242021092410288EE93E030
:1010B000A0E0B0E08093430290934402A0934502E5
:1010C000B093460284E092E09093400280933F0206
:1010D00085EC90E090934C0280934B0284EC90E07E
:1010E00090934E0280934D0280EC90E090935002DA
:1010F00080934F0281EC90E09093520280935102D2
:1011000082EC90E0909354028093530286EC90E03E
:1011100090935602809355021092580210925902F1
:1011200010925A0210925B0280916C03803308F097
:101130008FC091E0980F90936C038093A50390E08B
:10114000FC01EE0FFF1FE80FF91FE452FD4F88EB83
:101150009BE09283818380E090E0A8E4B3E48093F5
:10116000730390937403A0937503B093760340E0E8
:1011700050E068EC71E440936F0350937003609308
:101180007103709372031092780310927703109298
:10119000790310927A0310927B0310927C031092D1
:1011A0007D0310927E0310927F0310928003809340
:1011B000810390938203A0938303B093840340E060
:1011C00050E46CE975E44093850350938603609383
:1011D0008703709388038093890390938A03A09375
:1011E0008B03B0938C038FEF96EEABE5BFE2809359
:1011F0008D0390938E03A0938F03B093900380E0B0
:1012000090E5A3E4B7E48093910390939203A093B5
:101210009303B093940389E492E8ABE8B6E4809337
:10122000950390939603A0939703B093980310921D
:10123000A1031092A2031092A3031092A403109290
:10124000990310929A0310929B0310929C030895A5
:101250008FEF8093A5037FCF789484B5826084BD9F
:1012600084B5816084BD85B5826085BD85B58160AA
:1012700085BD80916E00816080936E001092810028
:1012800080918100826080938100809181008160E3
:1012900080938100809180008160809380008091A4
:1012A000B10084608093B1008091B0008160809330
:1012B000B0008091910082608093910080919100B4
:1012C0008160809391008091900081608093900074
:1012D0008091A10082608093A1008091A100816033
:1012E0008093A1008091A00081608093A0008091F4
:1012F000210182608093210180912101816080938E
:1013000021018091200181608093200180917A00E9
:10131000846080937A0080917A00826080937A0062
:1013200080917A00816080937A0080917A00806851
:1013300080937A001092C100E0914F02F091500228
:1013400082E08083E0914B02F0914C021082E091A8
:101350004D02F0914E0280E1808310925702E0919D
:101360005302F091540286E08083E0915102F091A3
:101370005202808180618083E0915102F09152029B
:10138000808188608083E0915102F09152028081D7
:1013900080688083E0915102F091520280818F7DBC
:1013A00080838091A503803308F051C08EE00E94B5
:1013B00022018091A503282F30E0F901EE0FFF1FD5
:1013C000E20FF31FE452FD4F9081907C9E6090836A
:1013D0001092A6031092A7032CE0622F0E94F10B3B
:1013E000829FB001112430E020E0AB01420F531F77
:1013F000FA01EE0FFF1FE40FF51FE452FD4F90813D
:1014000096FD17C02F5F3F4F2C30310571F78130AB
:1014100009F058C11092800082E080938100109200
:10142000850010928400B19A80916F008260809351
:101430006F00E091A5038E2F90E0FC01EE0FFF1FDF
:10144000E80FF91FE452FD4F80818064808384E2BD
:101450000E94220182E20E94220180E20E94220177
:101460008EE10E9422018CE10E94220161E08EE166
:101470000E949D0161E08CE10E949D0161E084E297
:101480000E949D0161E082E20E949D0160E080E295
:101490000E949D018AE180936D0388E180936E0331
:1014A0008AE10E94220160E080916D030E949D010B
:1014B00080916E030E94220160E080916E030E9481
:1014C0009D0180E090E0A8ECB4E4809373039093D6
:1014D0007403A0937503B093760380E090E0A8E4D2
:1014E000B5E48093810390938203A0938303B09328
:1014F000840380E090E4ACE9B3E4809385039093A7
:101500008603A0938703B093880380E090E0AAEF5E
:10151000B5E48093890390938A03A0938B03B093DF
:101520008C038FE590E7A9E0B2E380938D0390935D
:101530008E03A0938F03B09390038EE89DE0A7EFF6
:10154000B5E48093910390939203A0939303B09397
:10155000940386E697E7A0E3B5E480939503909320
:101560009603A0939703B09398034FE150E062E194
:1015700072E08FE392E00E947E0290E080E00E94A1
:10158000410164E670E080E090E00E946C040E94FB
:10159000E80664EF71E080E090E00E944C0285E094
:1015A00090E00E94410168EC70E080E090E00E94D1
:1015B0006C040E94E80664EF71E080E090E00E9415
:1015C0004C028AE090E00E9441016CE271E080E010
:1015D00090E00E946C040E94E80664EF71E080E0F5
:1015E00090E00E944C028FE090E00E94410160E98F
:1015F00071E080E090E00E946C040E94E80664EFD5
:1016000071E080E090E00E944C0284E190E00E9452
:10161000410164EF71E080E090E00E946C040E9460
:10162000E80664EF71E080E090E00E944C0289E1FE
:1016300090E00E94410168E572E080E090E00E9445
:101640006C040E94E80664EF71E080E090E00E9484
:101650004C028EE190E00E9441016CEB72E080E070
:1016600090E00E946C040E94E80664EF71E080E064
:1016700090E00E944C0283E290E00E94410160E20F
:1016800073E080E090E00E946C040E94E80664EF42
:1016900071E080E090E00E944C0288E290E00E94BD
:1016A000410164E873E080E090E00E946C040E94D5
:1016B000E80664EF71E080E090E00E944C020E9436
:1016C00081035BCF823061F410929000809391008F
:1016D000109295001092940088BB80937100A9CE5F
:1016E000833069F41092A00082E08093A1001092F0
:1016F000A5001092A40089BB809372009ACE81113C
:1017000098CE1092200182E0809321011092250151
:10171000109224018ABB809373008BCE052E97FB19
:101720001EF400940E94A50B57FD07D00E94C00B29
:1017300007FC03D04EF40C94A50B509540953095C2
:1017400021953F4F4F4F5F4F08959095809570952D
:1017500061957F4F8F4F9F4F08950E94E20BA59F89
:10176000900DB49F900DA49F800D911D112408959C
:10177000B7FF0C94AD0B0E94AD0B821B930B089529
:10178000A1E21A2EAA1BBB1BFD010DC0AA1FBB1F85
:10179000EE1FFF1FA217B307E407F50720F0A21BF7
:1017A000B30BE40BF50B661F771F881F991F1A9464
:1017B00069F760957095809590959B01AC01BD018E
:1017C000CF010895A29FB001B39FC001A39F700DE8
:1017D000811D1124911DB29F700D811D1124911D39
:1017E0000895991B79E004C0991F961708F0961B7D
:1017F000881F7A95C9F780950895EE0FFF1F002482
:10180000001C0BBE0790F691E02D09945058BB27A1
:10181000AA270E941E0C0C945B0D0E944D0D38F0FF
:101820000E94540D20F039F49F3F19F426F40C94D3
:101830004A0D0EF4E095E7FB0C94440DE92F0E944D
:101840006C0D58F3BA17620773078407950720F0E9
:1018500079F4A6F50C948E0D0EF4E0950B2EBA2FAC
:10186000A02D0B01B90190010C01CA01A0011124A6
:10187000FF27591B99F0593F50F4503E68F11A1652
:10188000F040A22F232F342F4427585FF3CF4695E3
:1018900037952795A795F0405395C9F77EF41F1605
:1018A000BA0B620B730B840BBAF09150A1F0FF0FCF
:1018B000BB1F661F771F881FC2F70EC0BA0F621FBB
:1018C000731F841F48F4879577956795B795F795AB
:1018D0009E3F08F0B0CF9395880F08F09927EE0F40
:1018E0009795879508950E94200D08F481E008954A
:1018F0000E948C0C0C945B0D0E94540D58F00E94B9
:101900004D0D40F029F45F3F29F00C94440D511126
:101910000C948F0D0C944A0D0E946C0D68F3992362
:10192000B1F3552391F3951B550BBB27AA276217DB
:101930007307840738F09F5F5F4F220F331F441FE8
:10194000AA1FA9F335D00E2E3AF0E0E832D091501C
:101950005040E695001CCAF72BD0FE2F29D0660F09
:10196000771F881FBB1F261737074807AB07B0E84C
:1019700009F0BB0B802DBF01FF2793585F4F3AF052
:101980009E3F510578F00C94440D0C948F0D5F3FF1
:10199000E4F3983ED4F3869577956795B795F795D8
:1019A0009F5FC9F7880F911D9695879597F90895C0
:1019B000E1E0660F771F881FBB1F6217730784075C
:1019C000BA0720F0621B730B840BBA0BEE1F88F76B
:1019D000E09508950E94F10C6894B1110C948F0D5C
:1019E00008950E94740D88F09F5798F0B92F992799
:1019F000B751B0F0E1F0660F771F881F991F1AF0FA
:101A0000BA95C9F714C0B13091F00E948E0DB1E0C3
:101A100008950C948E0D672F782F8827B85F39F0C2
:101A2000B93FCCF3869577956795B395D9F73EF492
:101A300090958095709561957F4F8F4F9F4F08953A
:101A4000990F0008550FAA0BE0E8FEEF16161706CF
:101A5000E807F907C0F012161306E407F50798F037
:101A6000621B730B840B950B39F40A2661F0232B50
:101A7000242B252B21F408950A2609F4A140A695CC
:101A80008FEF811D811D089597F99F6780E870E0B1
:101A900060E008959FEF80EC089500240A941616E4
:101AA000170618060906089500240A94121613064C
:101AB000140605060895092E0394000C11F48823DA
:101AC00052F0BB0F40F4BF2B11F460FF04C06F5FF6
:101AD0007F4F8F4F9F4F089557FD9058440F551FCC
:101AE00059F05F3F71F04795880F97FB991F61F0A0
:101AF0009F3F79F087950895121613061406551F17
:101B0000F2CF4695F1DF08C0161617061806991F82
:101B1000F1CF86957105610508940895E894BB2777
:101B200066277727CB0197F908950E94200D08F4C6
:101B30008FEF08950E94AD0D0C945B0D0E944D0D2A
:101B400038F00E94540D20F0952311F00C94440DB0
:101B50000C944A0D11240C948F0D0E946C0D70F39F
:101B6000959FC1F3950F50E0551F629FF001729F42
:101B7000BB27F00DB11D639FAA27F00DB11DAA1F51
:101B8000649F6627B00DA11D661F829F2227B00D9E
:101B9000A11D621F739FB00DA11D621F839FA00D29
:101BA000611D221F749F3327A00D611D231F849F79
:101BB000600D211D822F762F6A2F11249F575040D0
:101BC0009AF0F1F088234AF0EE0FFF1FBB1F661F4B
:101BD000771F881F91505040A9F79E3F510580F014
:101BE0000C94440D0C948F0D5F3FE4F3983ED4F3B6
:101BF000869577956795B795F795E7959F5FC1F7B8
:101C0000FE2B880F911D9695879597F90895F89466
:021C1000FFCF04
:101C12000000000014037E02AB026103DC02BA0280
:101C2200CE02496E76616C696420736F6C656E6F6B
:101C32006964204750494F2073656C65637465641D
:021C42000A0096
:00000001FF
